:10000000002000100D0100008501000085010000A6
:1000100000000000000000000000000000000000E0
:10002000000000000000000000000000850100004A
:100030000000000000000000850100008D010000AC
:100040008501000085010000850100008501000098
:100050008501000085010000850100008501000088
:100060008501000085010000850100008501000078
:100070008501000085010000850100008501000068
:100080008501000085010000850100008501000058
:100090008501000085010000850100008501000048
:1000A0008501000085010000850100008501000038
:1000B0008501000085010000850100008501000028
:1000C00080B500AF0B4B00221A600B4B23221A6045
:1000D0000A4B0A4A126880218A431A60084B01229F
:1000E0001A60084B03221A60074B01221A60BD46B2
:1000F00080BDC046408004400880044038820440EF
:1001000044800440708004407480044080B584B012
:1001100000AF174BFB60174BBB60174A154BD31A48
:100120007B6007E0BB685A1CBA60FA68511CF96032
:1001300012781A707B685A1E7A60002BF2D10F4B2E
:10014000BB600F4A0D4BD31A7B6004E0BB685A1C9E
:10015000BA6000221A707B685A1E7A60002BF5D1B3
:10016000FFF7AEFF00F050FABD4604B080BDC046B8
:1001700030080000000000100C0000100C000010FF
:100180001800001080B500AFFEE7C04680B500AF94
:100190000B4B1B685A1C0A4B1A60094B1A68094B17
:1001A0009A4208DD084B084A126804214A401A6046
:1001B000034B00221A6000F031F8BD4680BDC046F6
:1001C0000C000010E7030000FC3F005080B500AFBA
:1001D000074B074A126807210A431A60054B064A73
:1001E0001A60064B05221A6062B6BD4680BDC04645
:1001F00010E000E014E000E07FBB000018E000E049
:1002000080B582B000AF7860C0467B685A1E7A60C5
:10021000002BFAD1BD4602B080BDC04680B582B089
:1002200000AF00237B60194B1B68002B25D1174BB7
:1002300001221A60164B1A6880231B051340DA0E40
:10024000134B19688023DB050B409B0F53407B60E9
:100250007B68DB437B607A68012313407B600C4B37
:100260001B685A000A4B1A60094B1A687B681A43CC
:10027000074B1A60054B00221A60054B1B685B0197
:100280005B09181CBD4602B080BDC04610000010BE
:100290000800001080B500AF0F4B0F4A12680F49DD
:1002A0000A431A600E4B0E4A126803218A431A60F1
:1002B0000C4B0C4A126804210A431A600A4B0222B2
:1002C0001A600A4B094A126810218A431A60084BC7
:1002D000084A1A60BD4680BD80800440402001006D
:1002E0001C400440008000507840044038820440A4
:1002F00000C00140020B000080B500AF224B224A33
:10030000126822490A431A60214B214A12680121CE
:100310000A431A601E4B1E4A126806218A431A605D
:100320001C4B1C4A126801210A431A60194B194AD6
:10033000126806218A431A60134B134A12688021FF
:1003400049010A431A60144B01221A60134B134AE5
:10035000126880210A431A60114B10221A60114B57
:1003600038221A60104B01221A600C4B0B4A12689B
:1003700080218A431A60094B084A126803210A4304
:100380001A60BD4680BDC046808004404000010028
:10039000A4400440A8400440988004400C800040E1
:1003A00028800040008000400480004080B582B07A
:1003B00000AF021CFB1D1A70064BFA1D12781A6062
:1003C000C046054B1A6820231340FAD0BD4602B040
:1003D00080BDC046008000401480004080B500AF62
:1003E000064B1A680123134003D0054B1B68DBB290
:1003F00000E00023181CBD4680BDC04614800040AC
:100400000080004080B582B000AF786007E07B6874
:100410001B78181CFFF7CAFF7B6801337B607B6881
:100420001B78002BF3D1BD4602B080BD80B582B0F1
:1004300000AF78607B68002B07DB7B68092B04DC4E
:100440007B68DBB23033DBB20BE07B68092B07DD66
:100450007B680F2B04DC7B68DBB23733DBB200E058
:100460007A23181CBD4602B080BDC04680B586B058
:1004700000AF786008237B613A1C08327B69D3188F
:1004800000221A707B69013B7B6112E07A680F23BE
:100490001340181CFFF7CAFF031C1A1C391C083133
:1004A0007B69CB181A707B681B097B607B69013BF9
:1004B0007B617B69002BE9DA3B1C0833181CFFF7D2
:1004C000A1FFBD4606B080BD80B584B000AF7860A6
:1004D0000023FB607B68181C0A2100F005F9031C4F
:1004E0007B602EE0344B1A68344B1B68002B00DA1B
:1004F00001335B10D21AFB689A4203DB2E20FFF710
:1005000055FF1BE02D4B1B68002B00DA01335B10FD
:100510001A1C294B1B68D218FB689A4203DC2E2058
:10052000FFF744FF0AE0FA687B689A4203D1402053
:10053000FFF73CFF02E02020FFF738FFFB680133A4
:10054000FB60FB684F2BCDDD1B4B1A681B4B1B68F8
:10055000002B00DA01335B10D21A7B689A420CDA66
:10056000164B1B68002B00DA01335B101A1C124B70
:100570001B68D2187B689A4211DC114B1B685A1E0B
:100580000F4B1A600E4B1B68002B08D10D4B181C2B
:10059000FFF738FF0C4B181CFFF734FFFEE7084B42
:1005A0001B68181CFFF762FF084B181CFFF72AFF97
:1005B000BD4604B080BDC04614000010000000100D
:1005C00004000010AC070000C0070000DC070000BA
:1005D00080B500AF094B094A126809490A431A60FD
:1005E000C046084B1B68002BFBDA064B1B689B09B7
:1005F0009B059B0D181CBD4680BDC04600C0014038
:100600000200000104C0014080B582B000AFFFF7D6
:10061000DDFDFFF771FEFFF73DFE2F4B181CFFF7C6
:10062000F1FE2E4B181CFFF7EDFEC046FFF7D6FE7D
:10063000031C002BFAD0FFF7CBFF031C181C0A2168
:1006400000F052F8031C7B60254B7A681A60FFF7B4
:10065000BFFF031C7B607B68181CFFF735FFFFF7AB
:10066000DDFD021C0123134005D01D4B1B685A1CE5
:100670001B4B1A6004E01A4B1B685A1E184B1A6079
:10068000184B1B68002B00DA01335B101A1C144B4B
:100690001B689A4208DD134B1B68002B00DA0133FC
:1006A0005B105A1C0E4B1A600E4B1B68002B00DAB5
:1006B00001335B104F22D21A094B1B689A420ADAA7
:1006C000084B1B68002B00DA01335B104F22D21A53
:1006D000034B1A60BBE7BAE7E0070000FC07000025
:1006E0001400001000000010002941D010B4041CB8
:1006F0004C40A44601230022002900D5494200288D
:1007000000D5404288422CD301242407A14204D2C0
:10071000814202D209011B01F8E7E400A14204D2A0
:10072000814202D249005B00F8E7884201D3401AB7
:100730001A434C08A04202D3001B5C0822438C08D9
:10074000A04202D3001B9C082243CC08A04202D343
:10075000001BDC082243002803D01B0901D0090933
:10076000E3E7101C6446002C00D5404210BC7047E3
:10077000002806D003DB0020C043400801E08020B1
:10078000000607B4024802A14018029003BDC0460B
:10079000190000000029EBD003B5FFF7A7FF0EBC3E
:0C07A0004243891A1847C0467047C04603
:1007AC000D0A47616D65204F766572204C6F73653D
:1007BC00722100000D0A5072657373205245534527
:1007CC005420746F207265737461727400000000A1
:1007DC000D0A00000D0A57656C636F6D6520746F10
:1007EC00204144432052756E6E65720D0A00000064
:1007FC0043656E7472652074686520636F6E7472E5
:10080C006F6C6C657220616E6420707265737320FE
:10081C00616E79206B657920746F207374617274CA
:04082C0000000000C8
:0C0830001400000010000000A5A5A5A504
:00000001FF
