:10000000002000100D0100008501000085010000A6
:1000100000000000000000000000000000000000E0
:10002000000000000000000000000000850100004A
:1000300000000000000000008501000085010000B4
:100040008501000085010000850100008501000098
:100050008501000085010000850100008501000088
:100060008501000085010000850100008501000078
:100070008501000085010000850100008501000068
:100080008501000085010000850100008501000058
:100090008501000085010000850100008501000048
:1000A0008501000085010000850100008501000038
:1000B0008501000085010000850100008501000028
:1000C00080B500AF0B4B00221A600B4B23221A6045
:1000D0000A4B0A4A126880218A431A60084B01229F
:1000E0001A60084B03221A60074B01221A60BD46B2
:1000F00080BDC046408004400880044038820440EF
:1001000044800440708004407480044080B584B012
:1001100000AF174BFB60174BBB60174A154BD31A48
:100120007B6007E0BB685A1CBA60FA68511CF96032
:1001300012781A707B685A1E7A60002BF2D10F4B2E
:10014000BB600F4A0D4BD31A7B6004E0BB685A1C9E
:10015000BA6000221A707B685A1E7A60002BF5D1B3
:10016000FFF7AEFF00F04CF8BD4604B080BDC046BE
:100170003402000000000010000000100000001019
:100180000000001080B500AFFEE7C04680B582B029
:1001900000AF7860C0467B685A1E7A60002BFAD1A7
:1001A000BD4602B080BDC04680B500AF0E4B0E4AC2
:1001B00012680E490A431A600D4B0D4A126803215A
:1001C0008A431A600B4B0B4A126804210A431A60D7
:1001D000084B084A1168084A0A401A60074B002277
:1001E0001A60BD4680BDC0468080044040000100CA
:1001F0001C40044000800050FFFEFFFFFC3F005009
:1002000080B500AFFFF7D0FF084B1A6880235B0072
:1002100013400AD0054B054A126804214A401A606F
:10022000034B181CFFF7B2FFEEE7EDE7FC3F005071
:0402300040420F0039
:00000001FF
