:10000000002000100D0100008501000085010000A6
:1000100000000000000000000000000000000000E0
:10002000000000000000000000000000850100004A
:1000300000000000000000008501000085010000B4
:100040008501000085010000850100008501000098
:100050008501000085010000850100008501000088
:100060008501000085010000850100008501000078
:100070008501000085010000850100008501000068
:100080008501000085010000850100008501000058
:100090008501000085010000850100008501000048
:1000A0008501000085010000850100008501000038
:1000B0008501000085010000850100008501000028
:1000C00080B500AF0B4B00221A600B4B23221A6045
:1000D0000A4B0A4A126880218A431A60084B01229F
:1000E0001A60084B03221A60074B01221A60BD46B2
:1000F00080BDC046408004400880044038820440EF
:1001000044800440708004407480044080B584B012
:1001100000AF174BFB60174BBB60174A154BD31A48
:100120007B6007E0BB685A1CBA60FA68511CF96032
:1001300012781A707B685A1E7A60002BF2D10F4B2E
:10014000BB600F4A0D4BD31A7B6004E0BB685A1C9E
:10015000BA6000221A707B685A1E7A60002BF5D1B3
:10016000FFF7AEFF00F03EF9BD4604B080BDC046CB
:1001700098040000000000100000001000000010B3
:100180000000001080B500AFFEE7C04680B500AFAC
:100190001C4B1C4A12681C490A431A601B4B1B4A21
:1001A000126801210A431A60194B194A1268012189
:1001B0000A431A60134B134A1268802149010A430B
:1001C0001A60144B01221A60134B134A12688021E3
:1001D0000A431A60114B10221A60114B38221A6020
:1001E000104B01221A600C4B0B4A126880218A4383
:1001F0001A60094B084A126803210A431A60BD4677
:1002000080BDC0468080044040000100A4400440FE
:10021000A8400440988004400C80004028800040A2
:10022000008000400480004080B582B000AF021C16
:10023000FB1D1A70064BFA1D12781A60C046054B5A
:100240001A6820231340FAD0BD4602B080BDC046D4
:10025000008000401480004080B500AFC046054BD0
:100260001A6801231340FAD0034B1B68DBB2181C39
:10027000BD4680BD148000400080004080B582B043
:1002800000AF786007E07B681B78181CFFF7CCFF95
:100290007B6801337B607B681B78002BF3D1BD4604
:1002A00002B080BD80B582B000AF78607B68002B63
:1002B00007DB7B68092B04DC7B68DBB23033DBB205
:1002C0000BE07B68092B07DD7B680F2B04DC7B6868
:1002D000DBB23733DBB200E07A23181CBD4602B034
:1002E00080BDC04680B586B000AF786008237B61D2
:1002F0003A1C08327B69D31800221A707B69013BD3
:100300007B6112E07A680F231340181CFFF7CAFFC5
:10031000031C1A1C391C08317B69CB181A707B68C6
:100320001B097B607B69013B7B617B69002BE9DA00
:100330003B1C0833181CFFF7A1FFBD4606B080BD6B
:1003400080B582B000AF7860C0467B685A1E7A6084
:10035000002BFAD1BD4602B080BDC04680B500AFCB
:100360000E4B0E4A12680E490A431A600D4B0D4A95
:10037000126803218A431A600B4B0B4A126804214E
:100380000A431A60084B084A1168084A0A401A6072
:10039000074B00221A60BD4680BDC04680800440E5
:1003A000400001001C40044000800050FFFEFFFFA1
:1003B000FC3F005080B500AFC046034B1A680223D3
:1003C0001340FAD1BD4680BDFC3F005080B500AF60
:1003D000C046034B1A6802231340FAD0BD4680BDC5
:1003E000FC3F005080B582B000AF00237B60FFF778
:1003F000B5FFFFF7CBFE1B4B181CFFF73FFFFFF7C6
:10040000D9FFFFF7E3FF7B68002B05D101237B6059
:100410004D20FFF709FF04E000237B604C20FFF72D
:1004200003FFFFF719FF031C3B603B684C2B08D010
:100430004D2B0DD10C4B0C4A126804210A431A6053
:1004400006E0094B084A126804218A431A60C04634
:100450006420FFF775FF3B68DBB2181CFFF7E4FE72
:0C046000CDE7C0466C040000FC3F0050DB
:10046C005072657373204C20746F207475726E20FB
:10047C006F6E20746865204C45442C204D20746FA1
:0C048C00207475726E206F66660D0A0009
:00000001FF
